{
    "contractName": "SakuraCompany",
    "abi": [
        {
            "anonymous": false,
            "inputs": [
                {
                    "indexed": true,
                    "internalType": "address",
                    "name": "previousOwner",
                    "type": "address"
                },
                {
                    "indexed": true,
                    "internalType": "address",
                    "name": "newOwner",
                    "type": "address"
                }
            ],
            "name": "OwnershipTransferred",
            "type": "event"
        },
        {
            "inputs": [
                {
                    "internalType": "uint256",
                    "name": "",
                    "type": "uint256"
                }
            ],
            "name": "companyRoster",
            "outputs": [
                {
                    "internalType": "string",
                    "name": "name",
                    "type": "string"
                },
                {
                    "internalType": "string",
                    "name": "position",
                    "type": "string"
                },
                {
                    "internalType": "uint256",
                    "name": "employeeID",
                    "type": "uint256"
                },
                {
                    "internalType": "address",
                    "name": "paymentAddress",
                    "type": "address"
                },
                {
                    "components": [
                        {
                            "internalType": "uint8",
                            "name": "wageType",
                            "type": "uint8"
                        },
                        {
                            "internalType": "uint8",
                            "name": "workerHours",
                            "type": "uint8"
                        },
                        {
                            "internalType": "uint8",
                            "name": "payRate",
                            "type": "uint8"
                        },
                        {
                            "internalType": "uint32",
                            "name": "commissionValue",
                            "type": "uint32"
                        },
                        {
                            "internalType": "uint128",
                            "name": "salary",
                            "type": "uint128"
                        },
                        {
                            "internalType": "uint256",
                            "name": "commissionRate",
                            "type": "uint256"
                        },
                        {
                            "internalType": "uint256",
                            "name": "billingPeriod",
                            "type": "uint256"
                        }
                    ],
                    "internalType": "struct SakuraPlan.Plan",
                    "name": "employeePlan",
                    "type": "tuple"
                },
                {
                    "internalType": "bool",
                    "name": "isActive",
                    "type": "bool"
                },
                {
                    "internalType": "uint8",
                    "name": "role",
                    "type": "uint8"
                }
            ],
            "stateMutability": "view",
            "type": "function"
        },
        {
            "inputs": [
                {
                    "internalType": "uint256",
                    "name": "",
                    "type": "uint256"
                }
            ],
            "name": "idToEmployee",
            "outputs": [
                {
                    "internalType": "string",
                    "name": "name",
                    "type": "string"
                },
                {
                    "internalType": "string",
                    "name": "position",
                    "type": "string"
                },
                {
                    "internalType": "uint256",
                    "name": "employeeID",
                    "type": "uint256"
                },
                {
                    "internalType": "address",
                    "name": "paymentAddress",
                    "type": "address"
                },
                {
                    "components": [
                        {
                            "internalType": "uint8",
                            "name": "wageType",
                            "type": "uint8"
                        },
                        {
                            "internalType": "uint8",
                            "name": "workerHours",
                            "type": "uint8"
                        },
                        {
                            "internalType": "uint8",
                            "name": "payRate",
                            "type": "uint8"
                        },
                        {
                            "internalType": "uint32",
                            "name": "commissionValue",
                            "type": "uint32"
                        },
                        {
                            "internalType": "uint128",
                            "name": "salary",
                            "type": "uint128"
                        },
                        {
                            "internalType": "uint256",
                            "name": "commissionRate",
                            "type": "uint256"
                        },
                        {
                            "internalType": "uint256",
                            "name": "billingPeriod",
                            "type": "uint256"
                        }
                    ],
                    "internalType": "struct SakuraPlan.Plan",
                    "name": "employeePlan",
                    "type": "tuple"
                },
                {
                    "internalType": "bool",
                    "name": "isActive",
                    "type": "bool"
                },
                {
                    "internalType": "uint8",
                    "name": "role",
                    "type": "uint8"
                }
            ],
            "stateMutability": "view",
            "type": "function"
        },
        {
            "inputs": [],
            "name": "owner",
            "outputs": [
                {
                    "internalType": "address",
                    "name": "",
                    "type": "address"
                }
            ],
            "stateMutability": "view",
            "type": "function"
        },
        {
            "inputs": [],
            "name": "renounceOwnership",
            "outputs": [],
            "stateMutability": "nonpayable",
            "type": "function"
        },
        {
            "inputs": [
                {
                    "internalType": "address",
                    "name": "newOwner",
                    "type": "address"
                }
            ],
            "name": "transferOwnership",
            "outputs": [],
            "stateMutability": "nonpayable",
            "type": "function"
        }
    ],
    "bytecode": "608060405260cc80546001600160a81b03191674f187f54352ab7b807cb4966183b8d83a367f4d050017905534801561003757600080fd5b50600080546001600160a01b031916339081178255604051909182917f8be0079c531659141344cd1fd0a4f28419497f9722a3daafe3b4186f6b6457e0908290a350610643806100886000396000f3fe608060405234801561001057600080fd5b50600436106100575760003560e01c8063715018a61461005c5780638da5cb5b14610066578063e15c7c0e14610086578063f2fde38b146100ac578063f599d7d9146100bf575b600080fd5b6100646100d2565b005b6000546040516001600160a01b0390911681526020015b60405180910390f35b6100996100943660046104ad565b61017b565b60405161007d9796959493929190610510565b6100646100ba36600461047f565b61034a565b6100996100cd3660046104ad565b610464565b6000546001600160a01b031633146101315760405162461bcd60e51b815260206004820181905260248201527f4f776e61626c653a2063616c6c6572206973206e6f7420746865206f776e657260448201526064015b60405180910390fd5b600080546040516001600160a01b03909116907f8be0079c531659141344cd1fd0a4f28419497f9722a3daafe3b4186f6b6457e0908390a3600080546001600160a01b0319169055565b6004816019811061018b57600080fd5b600802018054909150819061019f906105d2565b80601f01602080910402602001604051908101604052809291908181526020018280546101cb906105d2565b80156102185780601f106101ed57610100808354040283529160200191610218565b820191906000526020600020905b8154815290600101906020018083116101fb57829003601f168201915b50505050509080600101805461022d906105d2565b80601f0160208091040260200160405190810160405280929190818152602001828054610259906105d2565b80156102a65780601f1061027b576101008083540402835291602001916102a6565b820191906000526020600020905b81548152906001019060200180831161028957829003601f168201915b50505050600283015460038401546040805160e081018252600487015460ff8082168352610100808304821660208501526201000083048216948401949094526301000000820463ffffffff1660608401526701000000000000009091046001600160801b03166080830152600588015460a0830152600688015460c0830152600790970154959693956001600160a01b0390931694509282811692919091041687565b6000546001600160a01b031633146103a45760405162461bcd60e51b815260206004820181905260248201527f4f776e61626c653a2063616c6c6572206973206e6f7420746865206f776e65726044820152606401610128565b6001600160a01b0381166104095760405162461bcd60e51b815260206004820152602660248201527f4f776e61626c653a206e6577206f776e657220697320746865207a65726f206160448201526564647265737360d01b6064820152608401610128565b600080546040516001600160a01b03808516939216917f8be0079c531659141344cd1fd0a4f28419497f9722a3daafe3b4186f6b6457e091a3600080546001600160a01b0319166001600160a01b0392909216919091179055565b60016020526000908152604090208054819061019f906105d2565b600060208284031215610490578081fd5b81356001600160a01b03811681146104a6578182fd5b9392505050565b6000602082840312156104be578081fd5b5035919050565b60008151808452815b818110156104ea576020818501810151868301820152016104ce565b818111156104fb5782602083870101525b50601f01601f19169290920160200192915050565b60006101a08083526105248184018b6104c5565b90508281036020840152610538818a6104c5565b91505086604083015260018060a01b038616606083015260ff855116608083015260ff60208601511660a083015260ff60408601511660c083015263ffffffff60608601511660e08301526001600160801b0360808601511661010083015260a085015161012083015260c08501516101408301526105bc61016083018515159052565b60ff831661018083015298975050505050505050565b600181811c908216806105e657607f821691505b6020821081141561060757634e487b7160e01b600052602260045260246000fd5b5091905056fea264697066735822122075daa810b846a28cf884249f82ef4b0b1fa5e882c6724dd3e846b24cc06b12ef64736f6c63430008040033",
    "sourcePath": "c:/Users/donut/Documents/SolidityProject/Projects/SakuraCompany.sol",
    "compiler": {
        "name": "solc",
        "version": "0.8.4+commit.c7e474f2"
    },
    "functionHashes": {
        "companyRoster(uint256)": "e15c7c0e",
        "idToEmployee(uint256)": "f599d7d9",
        "owner()": "8da5cb5b",
        "renounceOwnership()": "715018a6",
        "transferOwnership(address)": "f2fde38b"
    },
    "gasEstimates": {
        "creation": {
            "codeDepositCost": "320600",
            "executionCost": "43571",
            "totalCost": "364171"
        },
        "external": {
            "companyRoster(uint256)": "infinite",
            "idToEmployee(uint256)": "infinite",
            "owner()": "990",
            "renounceOwnership()": "24143",
            "transferOwnership(address)": "24409"
        },
        "internal": {
            "addEmployee(uint256,string memory,string memory,uint8,uint8,uint8,uint32,uint128,uint256)": "infinite",
            "deleteEmployee(uint256,uint256)": "infinite",
            "displayEmployees()": "infinite",
            "findSlot()": "infinite",
            "initContract(uint256)": "infinite",
            "setAdmin(uint256)": "infinite",
            "setNewOwner(uint256)": "infinite"
        }
    }
}