{
    "contractName": "SakuraCompany",
    "abi": [
        {
            "inputs": [
                {
                    "internalType": "uint256",
                    "name": "",
                    "type": "uint256"
                }
            ],
            "name": "companyRoster",
            "outputs": [
                {
                    "internalType": "string",
                    "name": "name",
                    "type": "string"
                },
                {
                    "internalType": "string",
                    "name": "position",
                    "type": "string"
                },
                {
                    "internalType": "address",
                    "name": "paymentAddress",
                    "type": "address"
                },
                {
                    "components": [
                        {
                            "internalType": "uint8",
                            "name": "wageType",
                            "type": "uint8"
                        },
                        {
                            "internalType": "uint8",
                            "name": "workerHours",
                            "type": "uint8"
                        },
                        {
                            "internalType": "uint8",
                            "name": "payRate",
                            "type": "uint8"
                        },
                        {
                            "internalType": "uint32",
                            "name": "commissionValue",
                            "type": "uint32"
                        },
                        {
                            "internalType": "uint128",
                            "name": "salary",
                            "type": "uint128"
                        },
                        {
                            "internalType": "uint256",
                            "name": "commissionRate",
                            "type": "uint256"
                        },
                        {
                            "internalType": "uint256",
                            "name": "billingPeriod",
                            "type": "uint256"
                        }
                    ],
                    "internalType": "struct SakuraPlan.Plan",
                    "name": "employeePlan",
                    "type": "tuple"
                },
                {
                    "internalType": "bool",
                    "name": "isActive",
                    "type": "bool"
                },
                {
                    "internalType": "uint8",
                    "name": "role",
                    "type": "uint8"
                }
            ],
            "stateMutability": "view",
            "type": "function"
        },
        {
            "inputs": [
                {
                    "internalType": "uint256",
                    "name": "time",
                    "type": "uint256"
                },
                {
                    "components": [
                        {
                            "internalType": "string",
                            "name": "name",
                            "type": "string"
                        },
                        {
                            "internalType": "string",
                            "name": "position",
                            "type": "string"
                        },
                        {
                            "internalType": "address",
                            "name": "paymentAddress",
                            "type": "address"
                        },
                        {
                            "components": [
                                {
                                    "internalType": "uint8",
                                    "name": "wageType",
                                    "type": "uint8"
                                },
                                {
                                    "internalType": "uint8",
                                    "name": "workerHours",
                                    "type": "uint8"
                                },
                                {
                                    "internalType": "uint8",
                                    "name": "payRate",
                                    "type": "uint8"
                                },
                                {
                                    "internalType": "uint32",
                                    "name": "commissionValue",
                                    "type": "uint32"
                                },
                                {
                                    "internalType": "uint128",
                                    "name": "salary",
                                    "type": "uint128"
                                },
                                {
                                    "internalType": "uint256",
                                    "name": "commissionRate",
                                    "type": "uint256"
                                },
                                {
                                    "internalType": "uint256",
                                    "name": "billingPeriod",
                                    "type": "uint256"
                                }
                            ],
                            "internalType": "struct SakuraPlan.Plan",
                            "name": "employeePlan",
                            "type": "tuple"
                        },
                        {
                            "internalType": "bool",
                            "name": "isActive",
                            "type": "bool"
                        },
                        {
                            "internalType": "uint8",
                            "name": "role",
                            "type": "uint8"
                        }
                    ],
                    "internalType": "struct SakuraStructs.Employee",
                    "name": "e",
                    "type": "tuple"
                }
            ],
            "name": "setBillingPeriod",
            "outputs": [],
            "stateMutability": "nonpayable",
            "type": "function"
        }
    ],
    "bytecode": "608060405260b180546001600160a01b03191673f187f54352ab7b807cb4966183b8d83a367f4d0517905534801561003657600080fd5b506106ae806100466000396000f3fe608060405234801561001057600080fd5b50600436106100365760003560e01c8063dadbd9431461003b578063e15c7c0e14610050575b600080fd5b61004e6100493660046103f6565b61007e565b005b61006361005e3660046103de565b6100ac565b60405161007596959493929190610521565b60405180910390f35b808060a0015160ff166001148061009c57508060a0015160ff166002145b6100a557600080fd5b5050600155565b600281601981106100bc57600080fd5b60070201805490915081906100d090610627565b80601f01602080910402602001604051908101604052809291908181526020018280546100fc90610627565b80156101495780601f1061011e57610100808354040283529160200191610149565b820191906000526020600020905b81548152906001019060200180831161012c57829003601f168201915b50505050509080600101805461015e90610627565b80601f016020809104026020016040519081016040528092919081815260200182805461018a90610627565b80156101d75780601f106101ac576101008083540402835291602001916101d7565b820191906000526020600020905b8154815290600101906020018083116101ba57829003601f168201915b5050505060028301546040805160e081018252600386015460ff8082168352610100808304821660208501526201000083048216948401949094526301000000820463ffffffff1660608401526701000000000000009091046001600160801b03166080830152600487015460a0830152600587015460c083015260069096015494956001600160a01b0390931694909350808316929190041686565b80356001600160a01b038116811461028b57600080fd5b919050565b8035801515811461028b57600080fd5b600082601f8301126102b0578081fd5b813567ffffffffffffffff808211156102cb576102cb610662565b604051601f8301601f19908116603f011681019082821181831017156102f3576102f3610662565b8160405283815286602085880101111561030b578485fd5b8360208701602083013792830160200193909352509392505050565b600060e08284031215610338578081fd5b6103406105db565b905061034b826103cd565b8152610359602083016103cd565b602082015261036a604083016103cd565b6040820152606082013563ffffffff8116811461038657600080fd5b6060820152610397608083016103b6565b608082015260a082013560a082015260c082013560c082015292915050565b80356001600160801b038116811461028b57600080fd5b803560ff8116811461028b57600080fd5b6000602082840312156103ef578081fd5b5035919050565b60008060408385031215610408578081fd5b82359150602083013567ffffffffffffffff80821115610426578283fd5b90840190610180828703121561043a578283fd5b610442610604565b823582811115610450578485fd5b61045c888286016102a0565b825250602083013582811115610470578485fd5b61047c888286016102a0565b60208301525061048e60408401610274565b60408201526104a08760608501610327565b60608201526104b26101408401610290565b60808201526104c461016084016103cd565b60a08201528093505050509250929050565b60008151808452815b818110156104fb576020818501810151868301820152016104df565b8181111561050c5782602083870101525b50601f01601f19169290920160200192915050565b60006101808083526105358184018a6104d6565b9050828103602084015261054981896104d6565b91505060018060a01b038616604083015260ff855116606083015260ff602086015116608083015260ff60408601511660a083015263ffffffff60608601511660c08301526001600160801b0360808601511660e083015260a085015161010083015260c08501516101208301526105c661014083018515159052565b60ff8316610160830152979650505050505050565b60405160e0810167ffffffffffffffff811182821017156105fe576105fe610662565b60405290565b60405160c0810167ffffffffffffffff811182821017156105fe576105fe610662565b600181811c9082168061063b57607f821691505b6020821081141561065c57634e487b7160e01b600052602260045260246000fd5b50919050565b634e487b7160e01b600052604160045260246000fdfea2646970667358221220cc8d842b8db9c4525f456099467b3061d601a12842cb0564ab2edaf1550282dd64736f6c63430008040033",
    "sourcePath": "c:/Sakura Payment/SakuraPayment/SakuraCompany.sol",
    "compiler": {
        "name": "solc",
        "version": "0.8.4+commit.c7e474f2"
    },
    "functionHashes": {
        "companyRoster(uint256)": "e15c7c0e",
        "setBillingPeriod(uint256,(string,string,address,(uint8,uint8,uint8,uint32,uint128,uint256,uint256),bool,uint8))": "dadbd943"
    },
    "gasEstimates": {
        "creation": {
            "codeDepositCost": "342000",
            "executionCost": "21216",
            "totalCost": "363216"
        },
        "external": {
            "companyRoster(uint256)": "infinite",
            "setBillingPeriod(uint256,(string,string,address,(uint8,uint8,uint8,uint32,uint128,uint256,uint256),bool,uint8))": "infinite"
        },
        "internal": {
            "setAsOwner()": "infinite"
        }
    }
}