{
    "contractName": "SakuraCompany",
    "abi": [
        {
            "inputs": [],
            "payable": false,
            "stateMutability": "nonpayable",
            "type": "constructor"
        },
        {
            "constant": false,
            "inputs": [
                {
                    "internalType": "uint256",
                    "name": "adminID",
                    "type": "uint256"
                },
                {
                    "internalType": "string",
                    "name": "name",
                    "type": "string"
                },
                {
                    "internalType": "string",
                    "name": "position",
                    "type": "string"
                },
                {
                    "internalType": "uint8",
                    "name": "wageType",
                    "type": "uint8"
                },
                {
                    "internalType": "uint8",
                    "name": "workerHours",
                    "type": "uint8"
                },
                {
                    "internalType": "uint8",
                    "name": "payRate",
                    "type": "uint8"
                },
                {
                    "internalType": "uint32",
                    "name": "commissionValue",
                    "type": "uint32"
                },
                {
                    "internalType": "uint128",
                    "name": "salary",
                    "type": "uint128"
                },
                {
                    "internalType": "uint256",
                    "name": "commissionRate",
                    "type": "uint256"
                }
            ],
            "name": "addEmployee",
            "outputs": [
                {
                    "internalType": "bool",
                    "name": "",
                    "type": "bool"
                }
            ],
            "payable": false,
            "stateMutability": "nonpayable",
            "type": "function"
        },
        {
            "constant": false,
            "inputs": [
                {
                    "internalType": "uint256",
                    "name": "adminID",
                    "type": "uint256"
                }
            ],
            "name": "changeEmployeeBillingPeriod",
            "outputs": [],
            "payable": false,
            "stateMutability": "nonpayable",
            "type": "function"
        },
        {
            "constant": false,
            "inputs": [
                {
                    "internalType": "uint256",
                    "name": "adminID",
                    "type": "uint256"
                },
                {
                    "internalType": "uint256",
                    "name": "idToBeDeleted",
                    "type": "uint256"
                }
            ],
            "name": "deleteEmployee",
            "outputs": [
                {
                    "internalType": "bool",
                    "name": "",
                    "type": "bool"
                }
            ],
            "payable": false,
            "stateMutability": "nonpayable",
            "type": "function"
        },
        {
            "constant": true,
            "inputs": [],
            "name": "getActiveEmployees",
            "outputs": [
                {
                    "internalType": "uint256",
                    "name": "",
                    "type": "uint256"
                }
            ],
            "payable": false,
            "stateMutability": "view",
            "type": "function"
        },
        {
            "constant": false,
            "inputs": [
                {
                    "internalType": "uint256",
                    "name": "ownerID",
                    "type": "uint256"
                }
            ],
            "name": "getCompanyPayTotal",
            "outputs": [
                {
                    "internalType": "bool",
                    "name": "",
                    "type": "bool"
                },
                {
                    "internalType": "uint256",
                    "name": "",
                    "type": "uint256"
                }
            ],
            "payable": false,
            "stateMutability": "nonpayable",
            "type": "function"
        },
        {
            "constant": true,
            "inputs": [
                {
                    "internalType": "uint256",
                    "name": "access",
                    "type": "uint256"
                },
                {
                    "internalType": "uint256",
                    "name": "id",
                    "type": "uint256"
                }
            ],
            "name": "getEmployeeComissionRate",
            "outputs": [
                {
                    "internalType": "bool",
                    "name": "",
                    "type": "bool"
                },
                {
                    "internalType": "uint256",
                    "name": "",
                    "type": "uint256"
                }
            ],
            "payable": false,
            "stateMutability": "view",
            "type": "function"
        },
        {
            "constant": true,
            "inputs": [
                {
                    "internalType": "uint256",
                    "name": "access",
                    "type": "uint256"
                },
                {
                    "internalType": "uint256",
                    "name": "id",
                    "type": "uint256"
                }
            ],
            "name": "getEmployeeComissionValue",
            "outputs": [
                {
                    "internalType": "bool",
                    "name": "",
                    "type": "bool"
                },
                {
                    "internalType": "uint32",
                    "name": "",
                    "type": "uint32"
                }
            ],
            "payable": false,
            "stateMutability": "view",
            "type": "function"
        },
        {
            "constant": true,
            "inputs": [
                {
                    "internalType": "uint256",
                    "name": "access",
                    "type": "uint256"
                },
                {
                    "internalType": "uint256",
                    "name": "id",
                    "type": "uint256"
                }
            ],
            "name": "getEmployeeID",
            "outputs": [
                {
                    "internalType": "bool",
                    "name": "",
                    "type": "bool"
                },
                {
                    "internalType": "uint256",
                    "name": "",
                    "type": "uint256"
                }
            ],
            "payable": false,
            "stateMutability": "view",
            "type": "function"
        },
        {
            "constant": true,
            "inputs": [
                {
                    "internalType": "uint256",
                    "name": "access",
                    "type": "uint256"
                },
                {
                    "internalType": "uint256",
                    "name": "id",
                    "type": "uint256"
                }
            ],
            "name": "getEmployeeName",
            "outputs": [
                {
                    "internalType": "bool",
                    "name": "",
                    "type": "bool"
                },
                {
                    "internalType": "string",
                    "name": "",
                    "type": "string"
                }
            ],
            "payable": false,
            "stateMutability": "view",
            "type": "function"
        },
        {
            "constant": true,
            "inputs": [
                {
                    "internalType": "uint256",
                    "name": "user",
                    "type": "uint256"
                },
                {
                    "internalType": "uint256",
                    "name": "id",
                    "type": "uint256"
                }
            ],
            "name": "getEmployeePay",
            "outputs": [
                {
                    "internalType": "uint256",
                    "name": "",
                    "type": "uint256"
                },
                {
                    "internalType": "bool",
                    "name": "",
                    "type": "bool"
                }
            ],
            "payable": false,
            "stateMutability": "view",
            "type": "function"
        },
        {
            "constant": true,
            "inputs": [
                {
                    "internalType": "uint256",
                    "name": "access",
                    "type": "uint256"
                },
                {
                    "internalType": "uint256",
                    "name": "id",
                    "type": "uint256"
                }
            ],
            "name": "getEmployeePayRate",
            "outputs": [
                {
                    "internalType": "bool",
                    "name": "",
                    "type": "bool"
                },
                {
                    "internalType": "uint32",
                    "name": "",
                    "type": "uint32"
                }
            ],
            "payable": false,
            "stateMutability": "view",
            "type": "function"
        },
        {
            "constant": true,
            "inputs": [
                {
                    "internalType": "uint256",
                    "name": "access",
                    "type": "uint256"
                },
                {
                    "internalType": "uint256",
                    "name": "id",
                    "type": "uint256"
                }
            ],
            "name": "getEmployeePaymentAddress",
            "outputs": [
                {
                    "internalType": "bool",
                    "name": "",
                    "type": "bool"
                },
                {
                    "internalType": "address payable",
                    "name": "",
                    "type": "address"
                }
            ],
            "payable": false,
            "stateMutability": "view",
            "type": "function"
        },
        {
            "constant": true,
            "inputs": [
                {
                    "internalType": "uint256",
                    "name": "access",
                    "type": "uint256"
                },
                {
                    "internalType": "uint256",
                    "name": "id",
                    "type": "uint256"
                }
            ],
            "name": "getEmployeePosition",
            "outputs": [
                {
                    "internalType": "bool",
                    "name": "",
                    "type": "bool"
                },
                {
                    "internalType": "string",
                    "name": "",
                    "type": "string"
                }
            ],
            "payable": false,
            "stateMutability": "view",
            "type": "function"
        },
        {
            "constant": true,
            "inputs": [
                {
                    "internalType": "uint256",
                    "name": "access",
                    "type": "uint256"
                },
                {
                    "internalType": "uint256",
                    "name": "id",
                    "type": "uint256"
                }
            ],
            "name": "getEmployeeRole",
            "outputs": [
                {
                    "internalType": "bool",
                    "name": "",
                    "type": "bool"
                },
                {
                    "internalType": "uint8",
                    "name": "",
                    "type": "uint8"
                }
            ],
            "payable": false,
            "stateMutability": "view",
            "type": "function"
        },
        {
            "constant": true,
            "inputs": [
                {
                    "internalType": "uint256",
                    "name": "access",
                    "type": "uint256"
                },
                {
                    "internalType": "uint256",
                    "name": "id",
                    "type": "uint256"
                }
            ],
            "name": "getEmployeeSalary",
            "outputs": [
                {
                    "internalType": "bool",
                    "name": "",
                    "type": "bool"
                },
                {
                    "internalType": "uint128",
                    "name": "",
                    "type": "uint128"
                }
            ],
            "payable": false,
            "stateMutability": "view",
            "type": "function"
        },
        {
            "constant": true,
            "inputs": [
                {
                    "internalType": "uint256",
                    "name": "access",
                    "type": "uint256"
                },
                {
                    "internalType": "uint256",
                    "name": "id",
                    "type": "uint256"
                }
            ],
            "name": "getEmployeeWageType",
            "outputs": [
                {
                    "internalType": "bool",
                    "name": "",
                    "type": "bool"
                },
                {
                    "internalType": "uint8",
                    "name": "",
                    "type": "uint8"
                }
            ],
            "payable": false,
            "stateMutability": "view",
            "type": "function"
        },
        {
            "constant": true,
            "inputs": [
                {
                    "internalType": "uint256",
                    "name": "access",
                    "type": "uint256"
                },
                {
                    "internalType": "uint256",
                    "name": "id",
                    "type": "uint256"
                }
            ],
            "name": "getEmployeeWorkerHours",
            "outputs": [
                {
                    "internalType": "bool",
                    "name": "",
                    "type": "bool"
                },
                {
                    "internalType": "uint32",
                    "name": "",
                    "type": "uint32"
                }
            ],
            "payable": false,
            "stateMutability": "view",
            "type": "function"
        },
        {
            "constant": false,
            "inputs": [
                {
                    "internalType": "uint256",
                    "name": "ownerID",
                    "type": "uint256"
                }
            ],
            "name": "pay",
            "outputs": [
                {
                    "internalType": "bool",
                    "name": "",
                    "type": "bool"
                }
            ],
            "payable": false,
            "stateMutability": "nonpayable",
            "type": "function"
        },
        {
            "constant": false,
            "inputs": [
                {
                    "internalType": "uint256",
                    "name": "adminID",
                    "type": "uint256"
                },
                {
                    "internalType": "uint256",
                    "name": "idtoBeDeleted",
                    "type": "uint256"
                }
            ],
            "name": "removeAdmin",
            "outputs": [
                {
                    "internalType": "bool",
                    "name": "",
                    "type": "bool"
                }
            ],
            "payable": false,
            "stateMutability": "nonpayable",
            "type": "function"
        },
        {
            "constant": false,
            "inputs": [
                {
                    "internalType": "uint256",
                    "name": "adminID",
                    "type": "uint256"
                },
                {
                    "internalType": "uint256",
                    "name": "id",
                    "type": "uint256"
                },
                {
                    "internalType": "address payable",
                    "name": "_paymentAddress",
                    "type": "address"
                }
            ],
            "name": "setAddress",
            "outputs": [
                {
                    "internalType": "bool",
                    "name": "",
                    "type": "bool"
                }
            ],
            "payable": false,
            "stateMutability": "nonpayable",
            "type": "function"
        },
        {
            "constant": false,
            "inputs": [
                {
                    "internalType": "uint256",
                    "name": "adminID",
                    "type": "uint256"
                },
                {
                    "internalType": "uint256",
                    "name": "id",
                    "type": "uint256"
                }
            ],
            "name": "setAdmin",
            "outputs": [
                {
                    "internalType": "bool",
                    "name": "",
                    "type": "bool"
                }
            ],
            "payable": false,
            "stateMutability": "nonpayable",
            "type": "function"
        },
        {
            "constant": false,
            "inputs": [
                {
                    "internalType": "uint256",
                    "name": "time",
                    "type": "uint256"
                },
                {
                    "internalType": "uint256",
                    "name": "adminID",
                    "type": "uint256"
                }
            ],
            "name": "setBillingPeriod",
            "outputs": [],
            "payable": false,
            "stateMutability": "nonpayable",
            "type": "function"
        },
        {
            "constant": false,
            "inputs": [
                {
                    "internalType": "uint256",
                    "name": "adminID",
                    "type": "uint256"
                },
                {
                    "internalType": "uint256",
                    "name": "id",
                    "type": "uint256"
                },
                {
                    "internalType": "uint256",
                    "name": "_commissionRate",
                    "type": "uint256"
                }
            ],
            "name": "setCommissionRate",
            "outputs": [
                {
                    "internalType": "bool",
                    "name": "",
                    "type": "bool"
                }
            ],
            "payable": false,
            "stateMutability": "nonpayable",
            "type": "function"
        },
        {
            "constant": false,
            "inputs": [
                {
                    "internalType": "uint256",
                    "name": "adminID",
                    "type": "uint256"
                },
                {
                    "internalType": "uint256",
                    "name": "id",
                    "type": "uint256"
                },
                {
                    "internalType": "uint32",
                    "name": "_commissionValue",
                    "type": "uint32"
                }
            ],
            "name": "setCommissionValue",
            "outputs": [
                {
                    "internalType": "bool",
                    "name": "",
                    "type": "bool"
                }
            ],
            "payable": false,
            "stateMutability": "nonpayable",
            "type": "function"
        },
        {
            "constant": false,
            "inputs": [
                {
                    "internalType": "uint256",
                    "name": "adminID",
                    "type": "uint256"
                },
                {
                    "internalType": "uint256",
                    "name": "id",
                    "type": "uint256"
                },
                {
                    "internalType": "string",
                    "name": "_name",
                    "type": "string"
                }
            ],
            "name": "setName",
            "outputs": [
                {
                    "internalType": "bool",
                    "name": "",
                    "type": "bool"
                }
            ],
            "payable": false,
            "stateMutability": "nonpayable",
            "type": "function"
        },
        {
            "constant": false,
            "inputs": [
                {
                    "internalType": "uint256",
                    "name": "adminID",
                    "type": "uint256"
                },
                {
                    "internalType": "uint256",
                    "name": "id",
                    "type": "uint256"
                },
                {
                    "internalType": "uint32",
                    "name": "_payRate",
                    "type": "uint32"
                }
            ],
            "name": "setPayRate",
            "outputs": [
                {
                    "internalType": "bool",
                    "name": "",
                    "type": "bool"
                }
            ],
            "payable": false,
            "stateMutability": "nonpayable",
            "type": "function"
        },
        {
            "constant": false,
            "inputs": [
                {
                    "internalType": "uint256",
                    "name": "adminID",
                    "type": "uint256"
                },
                {
                    "internalType": "uint256",
                    "name": "id",
                    "type": "uint256"
                },
                {
                    "internalType": "string",
                    "name": "_position",
                    "type": "string"
                }
            ],
            "name": "setPosition",
            "outputs": [
                {
                    "internalType": "bool",
                    "name": "",
                    "type": "bool"
                }
            ],
            "payable": false,
            "stateMutability": "nonpayable",
            "type": "function"
        },
        {
            "constant": false,
            "inputs": [
                {
                    "internalType": "uint256",
                    "name": "adminID",
                    "type": "uint256"
                },
                {
                    "internalType": "uint256",
                    "name": "id",
                    "type": "uint256"
                },
                {
                    "internalType": "uint128",
                    "name": "_salary",
                    "type": "uint128"
                }
            ],
            "name": "setSalary",
            "outputs": [
                {
                    "internalType": "bool",
                    "name": "",
                    "type": "bool"
                }
            ],
            "payable": false,
            "stateMutability": "nonpayable",
            "type": "function"
        },
        {
            "constant": false,
            "inputs": [
                {
                    "internalType": "uint256",
                    "name": "adminID",
                    "type": "uint256"
                },
                {
                    "internalType": "uint256",
                    "name": "id",
                    "type": "uint256"
                },
                {
                    "internalType": "uint8",
                    "name": "_wageType",
                    "type": "uint8"
                }
            ],
            "name": "setWageType",
            "outputs": [
                {
                    "internalType": "bool",
                    "name": "",
                    "type": "bool"
                }
            ],
            "payable": false,
            "stateMutability": "nonpayable",
            "type": "function"
        },
        {
            "constant": false,
            "inputs": [
                {
                    "internalType": "uint256",
                    "name": "adminID",
                    "type": "uint256"
                },
                {
                    "internalType": "uint256",
                    "name": "id",
                    "type": "uint256"
                },
                {
                    "internalType": "uint32",
                    "name": "_workerHours",
                    "type": "uint32"
                }
            ],
            "name": "setWorkerHours",
            "outputs": [
                {
                    "internalType": "bool",
                    "name": "",
                    "type": "bool"
                }
            ],
            "payable": false,
            "stateMutability": "nonpayable",
            "type": "function"
        }
    ],
    "bytecode": "60806040523480156200001157600080fd5b5060cd80546001600160a01b03191673f187f54352ab7b807cb4966183b8d83a367f4d05179081905562127500600181815560028181556000600381815560048290556040805161012081018252600e60e08083019182526d416e64726577204b75727469616b60901b610100840152908252825180840184529384526243454f60e81b602080860191909152808301949094528183018790526001600160a01b0390981660608083019190915282519889018352868952888401859052918801849052908701839052620186a060808089019190915260a08881019490945260c088810197909752810196909652908501929092529183019190915281518051600592620001259284929101906200061f565b5060208281015180516200014092600185019201906200061f565b506040828101516002838101919091556060808501516003850180546001600160a01b0319166001600160a01b03909216919091179055608080860151805160048701805460208085015198850151968501519585015160ff1992831660ff9586161764ffffffff00191661010063ffffffff9b8c1681029190911763ffffffff60281b191665010000000000998c16999099029890981763ffffffff60481b191669010000000000000000009a9097169990990295909517600160681b600160e81b031916600160681b6001600160801b039099169890980297909717905560a0808301516005808a019190915560c09384015160068a015590890151600790980180549390990151929096169615159690961761ff001916951682029490941790945560016000818152909352815491937fada5013122d395ba3c54772283fb069b10426056ef8ca54750cb9bb552a59e7d93620002b1938593879392821615909202600019011604620006a4565b5060018201816001019080546001816001161561010002031660029004620002db929190620006a4565b506002828101548282015560038084015490830180546001600160a01b0319166001600160a01b0390921691909117905560048084018054918401805460ff1990811660ff94851617808355835463ffffffff610100918290048116820264ffffffff0019909316929092178085558554650100000000009081900484160263ffffffff60281b1990911617808555855469010000000000000000009081900490931690920263ffffffff60481b199092169190911780845593546001600160801b03600160681b918290041602600160681b600160e81b0319909416939093179091556005808701549086015560068087015490860155600795860180549690950180549684161515969091169590951780865593548190049091160261ff001990921691909117909155805460019081019091555b601981101562000618576040805161010081018252600060e080830182815283528351602081810186528382528085019190915283850183905260cd546001600160a01b031660608086019190915285519283018652838352908201839052938101829052928301819052608083810182905260a084810183905260015460c080870191909152918401949094529282018190529181019190915260058260198110620004bb57fe5b600802016000820151816000019080519060200190620004dd9291906200061f565b506020828101518051620004f892600185019201906200061f565b5060408281015160028301556060808401516003840180546001600160a01b0319166001600160a01b039092169190911790556080808501518051600486018054602084015196840151958401519484015160ff1991821660ff9485161764ffffffff00191661010063ffffffff998a1681029190911763ffffffff60281b191665010000000000988a16989098029790971763ffffffff60481b19166901000000000000000000989096169790970294909417600160681b600160e81b031916600160681b6001600160801b03909716969096029590951790945560a080820151600587015560c091820151600687015586015160079095018054919096015191169315159390931761ff001916929091160217905560010162000412565b506200073e565b828054600181600116156101000203166002900490600052602060002090601f016020900481019282601f106200066257805160ff191683800117855562000692565b8280016001018555821562000692579182015b828111156200069257825182559160200191906001019062000675565b50620006a09291506200071e565b5090565b828054600181600116156101000203166002900490600052602060002090601f016020900481019282601f10620006df578054855562000692565b828001600101855582156200069257600052602060002091601f016020900482015b828111156200069257825482559160010191906001019062000701565b6200073b91905b80821115620006a0576000815560010162000725565b90565b611d23806200074e6000396000f3fe608060405234801561001057600080fd5b50600436106101da5760003560e01c80638214b34111610104578063c20eb20e116100a2578063da6492e711610071578063da6492e714610937578063db9585d11461095a578063df4181731461097d578063f35a5e8a146109a0576101da565b8063c20eb20e14610888578063c290d691146108b7578063c2b85bc9146108d4578063d80065a014610914576101da565b80639598ed65116100de5780639598ed65146107e1578063a5f5dc1e14610804578063a7a4331f14610833578063bda8654a14610865576101da565b80638214b341146106c557806393ff9665146106ee5780639546524a14610731576101da565b806340e4cef51161017c5780635d8955281161014b5780635d895528146105715780635f84b8bf146105b757806362dfcc15146105e9578063697702f814610615576101da565b806340e4cef5146104d157806347e23df9146105175780634df07a26146105315780635c8f73ee14610554576101da565b80632a1458e4116101b85780632a1458e4146103b4578063323465721461045a57806335e1691a14610489578063361ad7a4146104ae576101da565b80631d491f7b146101df5780631d9ed35a146102175780632709b7b714610391575b600080fd5b6101fc600480360360208110156101f557600080fd5b50356109dc565b60408051921515835260208301919091528051918290030190f35b61037d600480360361012081101561022e57600080fd5b81359190810190604081016020820135600160201b81111561024f57600080fd5b82018360208201111561026157600080fd5b803590602001918460018302840111600160201b8311171561028257600080fd5b91908080601f0160208091040260200160405190810160405280939291908181526020018383808284376000920191909152509295949360208101935035915050600160201b8111156102d457600080fd5b8201836020820111156102e657600080fd5b803590602001918460018302840111600160201b8311171561030757600080fd5b91908080601f0160208091040260200160405190810160405280939291908181526020018383808284376000920191909152509295505060ff83358116945060208401358116936040810135909116925063ffffffff60608201351691506001600160801b036080820135169060a00135610a6e565b604080519115158252519081900360200190f35b61037d600480360360408110156103a757600080fd5b5080359060200135610e6b565b6103d7600480360360408110156103ca57600080fd5b5080359060200135610ec3565b604051808315151515815260200180602001828103825283818151815260200191508051906020019080838360005b8381101561041e578181015183820152602001610406565b50505050905090810190601f16801561044b5780820380516001836020036101000a031916815260200191505b50935050505060405180910390f35b61037d6004803603606081101561047057600080fd5b508035906020810135906040013563ffffffff16610fc3565b6104ac6004803603604081101561049f57600080fd5b5080359060200135611026565b005b61037d600480360360408110156104c457600080fd5b5080359060200135611046565b6104f4600480360360408110156104e757600080fd5b50803590602001356110a5565b6040805192151583526001600160801b0390911660208301528051918290030190f35b61051f61110e565b60408051918252519081900360200190f35b6101fc6004803603604081101561054757600080fd5b5080359060200135611156565b6104ac6004803603602081101561056a57600080fd5b50356111a1565b6105946004803603604081101561058757600080fd5b50803590602001356111e4565b6040805192151583526001600160a01b0390911660208301528051918290030190f35b61037d600480360360608110156105cd57600080fd5b50803590602081013590604001356001600160801b0316611259565b61037d600480360360608110156105ff57600080fd5b508035906020810135906040013560ff166112c2565b61037d6004803603606081101561062b57600080fd5b813591602081013591810190606081016040820135600160201b81111561065157600080fd5b82018360208201111561066357600080fd5b803590602001918460018302840111600160201b8311171561068457600080fd5b91908080601f016020809104026020016040519081016040528093929190818152602001838380828437600092019190915250929550611316945050505050565b61037d600480360360608110156106db57600080fd5b5080359060208101359060400135611368565b6107116004803603604081101561070457600080fd5b50803590602001356113ac565b60408051921515835263ffffffff90911660208301528051918290030190f35b61037d6004803603606081101561074757600080fd5b813591602081013591810190606081016040820135600160201b81111561076d57600080fd5b82018360208201111561077f57600080fd5b803590602001918460018302840111600160201b831117156107a057600080fd5b91908080601f016020809104026020016040519081016040528093929190818152602001838380828437600092019190915250929550611404945050505050565b610711600480360360408110156107f757600080fd5b5080359060200135611451565b61037d6004803603606081101561081a57600080fd5b508035906020810135906040013563ffffffff166114a9565b61037d6004803603606081101561084957600080fd5b50803590602081013590604001356001600160a01b0316611508565b6107116004803603604081101561087b57600080fd5b5080359060200135611568565b61037d6004803603606081101561089e57600080fd5b508035906020810135906040013563ffffffff166115be565b61037d600480360360208110156108cd57600080fd5b5035611621565b6108f7600480360360408110156108ea57600080fd5b50803590602001356116ff565b60408051921515835260ff90911660208301528051918290030190f35b61037d6004803603604081101561092a57600080fd5b5080359060200135611752565b6108f76004803603604081101561094d57600080fd5b5080359060200135611796565b6101fc6004803603604081101561097057600080fd5b50803590602001356117f2565b6103d76004803603604081101561099357600080fd5b508035906020013561184a565b6109c3600480360360408110156109b657600080fd5b50803590602001356118fa565b6040805192835290151560208301528051918290030190f35b60008080806109ea8561194f565b90508015610a655760005b6019811015610a635760058160198110610a0b57fe5b6008020160070154600160ff90911615151415610a5b57610a3e60058260198110610a3257fe5b60080201600401611998565b83019250610a5b60058260198110610a5257fe5b60080201611a72565b6001016109f5565b505b92509050915091565b600080610a79611adc565b9050610a848b611b1a565b610a92576000915050610e5e565b6000811215610aa5576000915050610e5e565b6040518060e001604052808b81526020018a8152602001600254815260200160cd60009054906101000a90046001600160a01b03166001600160a01b031681526020016040518060e001604052808b60ff1681526020018a60ff1663ffffffff1681526020018960ff1663ffffffff1681526020018863ffffffff168152602001876001600160801b031681526020018681526020016001548152508152602001600115158152602001600060ff1681525060058260198110610b6457fe5b600802016000820151816000019080519060200190610b84929190611be1565b506020828101518051610b9d9260018501920190611be1565b5060408281015160028301556060808401516003840180546001600160a01b039092166001600160a01b0319909216919091179055608080850151805160048601805460208401519684015195840151948401516001600160801b0316600160681b02600160681b600160e81b031963ffffffff968716600160481b0263ffffffff60481b19988816600160281b0268ffffffff00000000001998909a1661010090810264ffffffff001960ff98891660ff1997881617161798909816999099179790971697909717959095169590951790945560a08082015160058088019190915560c09283015160068801559087015160079096018054929097015190941690910261ff0019941515919092161792909216919091179091558160198110610cc357fe5b60080201600080600254815260200190815260200160002060008201816000019080546001816001161561010002031660029004610d02929190611c5f565b5060018201816001019080546001816001161561010002031660029004610d2a929190611c5f565b506002828101548282015560038084015490830180546001600160a01b0319166001600160a01b0390921691909117905560048084018054918401805460ff1990811660ff94851617808355835463ffffffff610100918290048116820264ffffffff0019909316929092178085558554600160281b9081900484160268ffffffff000000000019909116178085558554600160481b9081900490931690920263ffffffff60481b199092169190911780845593546001600160801b03600160681b918290041602600160681b600160e81b0319909416939093179091556005808701549086015560068087015490860155600795860180549690950180549684161515969091169590951780865593548190049091160261ff001990921691909117909155805460019081019091559150505b9998505050505050505050565b600080610e7784611b1a565b8015610e875750610e8783611b1a565b8015610e995750610e978361194f565b155b90508015610ebc576000838152602081905260409020600701805461ff00191690555b9392505050565b600060606000610ed284611b7f565b8015610eeb575084841480610eeb5750610eeb85611b1a565b90508015610f9a576000848152602081815260409182902080548351601f6002600019610100600186161502019093169290920491820184900484028101840190945280845284939192839190830182828015610f895780601f10610f5e57610100808354040283529160200191610f89565b820191906000526020600020905b815481529060010190602001808311610f6c57829003601f168201915b505050505090509250925050610fbc565b50506040805180820190915260048152631b9d5b1b60e21b6020820152600091505b9250929050565b6000610fce84611b1a565b1580610fe05750610fde83611b7f565b155b15610fed57506000610ebc565b506000828152602081905260409020600401805468ffffffff00000000001916600160281b63ffffffff84160217905560019392505050565b61102f81611b1a565b15611042576001829055611042816111a1565b5050565b60008061105284611b1a565b90508015610ebc57600083815260208190526040902060070154610100900460ff1661109b576000838152602081905260409020600701805461ff001916610100179055610ebc565b5060009392505050565b60008060006110b384611b7f565b80156110cc5750848414806110cc57506110cc85611b1a565b9050801561110057600084815260208190526040902060040154909250600160681b90046001600160801b03169050610fbc565b506000946001945092505050565b600080805b601981101561114f576005816019811061112957fe5b6008020160070154600160ff90911615151415611147576001909101905b600101611113565b5090505b90565b600080600061116484611b7f565b801561117d57508484148061117d575061117d85611b1a565b90508015611100576000848152602081905260409020600501549092509050610fbc565b6111aa81611b1a565b156111e15760005b601960ff821610156110425760015460058260ff16601981106111d157fe5b60080201600601556001016111b2565b50565b60008060006111f284611b7f565b801561120b57508484148061120b575061120b85611b1a565b90508015611238576000848152602081905260409020600301549092506001600160a01b03169050610fbc565b5060009473f187f54352ab7b807cb4966183b8d83a367f4d05945092505050565b600061126484611b1a565b1580611276575061127483611b7f565b155b1561128357506000610ebc565b50600082815260208190526040902060040180546001600160801b038316600160681b02600160681b600160e81b031990911617905560019392505050565b60006112cd84611b1a565b15806112df57506112dd83611b7f565b155b156112ec57506000610ebc565b506000828152602081905260409020600401805460ff831660ff1990911617905560019392505050565b600061132184611b1a565b1580611333575061133183611b7f565b155b1561134057506000610ebc565b600083815260208181526040909120835161135d92850190611be1565b506001949350505050565b600061137384611b1a565b1580611385575061138383611b7f565b155b1561139257506000610ebc565b506000918252602082905260409091206005015550600190565b60008060006113ba84611b7f565b80156113d35750848414806113d357506113d385611b1a565b9050801561110057600084815260208190526040902060040154909250600160281b900463ffffffff169050610fbc565b600061140f84611b1a565b1580611421575061141f83611b7f565b155b1561142e57506000610ebc565b600083815260208181526040909120835161135d92600190920191850190611be1565b600080600061145f84611b7f565b8015611478575084841480611478575061147885611b1a565b9050801561110057600084815260208190526040902060040154909250600160481b900463ffffffff169050610fbc565b60006114b484611b1a565b15806114c657506114c483611b7f565b155b156114d357506000610ebc565b506000828152602081905260409020600401805463ffffffff83166101000264ffffffff001990911617905560019392505050565b600061151384611b1a565b1580611525575061152383611b7f565b155b1561153257506000610ebc565b50600082815260208190526040902060030180546001600160a01b0383166001600160a01b031990911617905560019392505050565b600080600061157684611b7f565b801561158f57508484148061158f575061158f85611b1a565b9050801561110057600084815260208190526040902060040154909250610100900463ffffffff169050610fbc565b60006115c984611b1a565b15806115db57506115d983611b7f565b155b156115e857506000610ebc565b506000828152602081905260409020600401805463ffffffff8316600160481b0263ffffffff60481b1990911617905560019392505050565b600080600061162f846109dc565b92509050600081801561164157508247115b905080156116f55760005b60198110156116f35760006005826019811061166457fe5b60080201600301546001600160a01b03166108fc61168860058560198110610a3257fe5b6040518115909202916000818181858888f193505050509050806116ea576040805162461bcd60e51b81526020600482015260146024820152732330b4b632b2103a379039b2b7321022ba3432b960611b604482015290519081900360640190fd5b5060010161164c565b505b925050505b919050565b600080600061170d84611b7f565b8015611726575084841480611726575061172685611b1a565b9050801561110057600084815260208190526040902060070154909250610100900460ff169050610fbc565b60008061175e84611b1a565b801561176e575061176e83611b7f565b90508015610ebc57600092835260208390526040909220600701805460ff1916905550919050565b60008060006117a484611b7f565b80156117bd5750848414806117bd57506117bd85611b1a565b905080156117e45760008481526020819052604090206004015490925060ff169050610fbc565b50600094600a945092505050565b600080600061180084611b7f565b8015611819575084841480611819575061181985611b1a565b9050801561183d576000848152602081905260409020600201549092509050610fbc565b5060009485945092505050565b60006060600061185984611b7f565b8015611872575084841480611872575061187285611b1a565b90508015610f9a5780600080868152602001908152602001600020600101808054600181600116156101000203166002900480601f016020809104026020016040519081016040528092919081815260200182805460018160011615610100020316600290048015610f895780601f10610f5e57610100808354040283529160200191610f89565b600080600061190884611b7f565b8015611921575084841480611921575061192185611b1a565b9050801561183d57600084815260208190526040902061194390600401611998565b60019250925050610fbc565b60008061195b83611b7f565b9050801561198f57600083815260208190526040902060070154610100900460ff166002141561198f5760019150506116fa565b50600092915050565b8054600090819060ff166119ca57508154610100810463ffffffff908116600160281b90920481169190910216611a6c565b825460ff16600114156119ff5782546002840154600160681b9091046001600160801b0316906301e133809004029050611a6c565b825460ff1660021415611a4b57600183015483546002850154600160481b820463ffffffff1690920291600160681b9091046001600160801b0316906301e13380900402019050611a6c565b825460ff1660031415611a6c57508154600160681b90046001600160801b03165b92915050565b600481015460ff16611a935760048101805464ffffffff0019169055611ab6565b600481015460ff1660021415611ab65760048101805463ffffffff60481b191690555b600481015460ff16600314156111e1576004018054600160681b600160e81b0319169055565b600060001960015b601981101561114f5760058160198110611afa57fe5b600802016007015460ff16611b125791506111539050565b600101611ae4565b600080611b2683611b7f565b9050801561198f5760008381526020819052604090206007015460ff6101009091041660011480611b705750600083815260208190526040902060070154610100900460ff166002145b1561198f5760019150506116fa565b6000805b601981101561198f578260058260198110611b9a57fe5b6008020160020154148015611bca575060058160198110611bb757fe5b6008020160070154600160ff9091161515145b15611bd95760019150506116fa565b600101611b83565b828054600181600116156101000203166002900490600052602060002090601f016020900481019282601f10611c2257805160ff1916838001178555611c4f565b82800160010185558215611c4f579182015b82811115611c4f578251825591602001919060010190611c34565b50611c5b929150611cd4565b5090565b828054600181600116156101000203166002900490600052602060002090601f016020900481019282601f10611c985780548555611c4f565b82800160010185558215611c4f57600052602060002091601f016020900482015b82811115611c4f578254825591600101919060010190611cb9565b61115391905b80821115611c5b5760008155600101611cda56fea265627a7a723158200863c89d0914a67c162880897058b2c8cb45cf8a6a5d867d1fefed4d4cfa9f4c64736f6c63430005100032",
    "sourcePath": "c:/Users/donut/Documents/SolidityProject/Projects/SakuraCompany.sol",
    "compiler": {
        "name": "solc",
        "version": "0.5.16+commit.9c3226ce"
    },
    "functionHashes": {
        "addEmployee(uint256,string,string,uint8,uint8,uint8,uint32,uint128,uint256)": "1d9ed35a",
        "changeEmployeeBillingPeriod(uint256)": "5c8f73ee",
        "deleteEmployee(uint256,uint256)": "d80065a0",
        "getActiveEmployees()": "47e23df9",
        "getCompanyPayTotal(uint256)": "1d491f7b",
        "getEmployeeComissionRate(uint256,uint256)": "4df07a26",
        "getEmployeeComissionValue(uint256,uint256)": "9598ed65",
        "getEmployeeID(uint256,uint256)": "db9585d1",
        "getEmployeeName(uint256,uint256)": "2a1458e4",
        "getEmployeePay(uint256,uint256)": "f35a5e8a",
        "getEmployeePayRate(uint256,uint256)": "93ff9665",
        "getEmployeePaymentAddress(uint256,uint256)": "5d895528",
        "getEmployeePosition(uint256,uint256)": "df418173",
        "getEmployeeRole(uint256,uint256)": "c2b85bc9",
        "getEmployeeSalary(uint256,uint256)": "40e4cef5",
        "getEmployeeWageType(uint256,uint256)": "da6492e7",
        "getEmployeeWorkerHours(uint256,uint256)": "bda8654a",
        "pay(uint256)": "c290d691",
        "removeAdmin(uint256,uint256)": "2709b7b7",
        "setAddress(uint256,uint256,address)": "a7a4331f",
        "setAdmin(uint256,uint256)": "361ad7a4",
        "setBillingPeriod(uint256,uint256)": "35e1691a",
        "setCommissionRate(uint256,uint256,uint256)": "8214b341",
        "setCommissionValue(uint256,uint256,uint32)": "c20eb20e",
        "setName(uint256,uint256,string)": "697702f8",
        "setPayRate(uint256,uint256,uint32)": "32346572",
        "setPosition(uint256,uint256,string)": "9546524a",
        "setSalary(uint256,uint256,uint128)": "5f84b8bf",
        "setWageType(uint256,uint256,uint8)": "62dfcc15",
        "setWorkerHours(uint256,uint256,uint32)": "a5f5dc1e"
    },
    "gasEstimates": {
        "creation": {
            "codeDepositCost": "1491800",
            "executionCost": "infinite",
            "totalCost": "infinite"
        },
        "external": {
            "addEmployee(uint256,string,string,uint8,uint8,uint8,uint32,uint128,uint256)": "infinite",
            "changeEmployeeBillingPeriod(uint256)": "infinite",
            "deleteEmployee(uint256,uint256)": "infinite",
            "getActiveEmployees()": "infinite",
            "getCompanyPayTotal(uint256)": "infinite",
            "getEmployeeComissionRate(uint256,uint256)": "infinite",
            "getEmployeeComissionValue(uint256,uint256)": "infinite",
            "getEmployeeID(uint256,uint256)": "infinite",
            "getEmployeeName(uint256,uint256)": "infinite",
            "getEmployeePay(uint256,uint256)": "infinite",
            "getEmployeePayRate(uint256,uint256)": "infinite",
            "getEmployeePaymentAddress(uint256,uint256)": "infinite",
            "getEmployeePosition(uint256,uint256)": "infinite",
            "getEmployeeRole(uint256,uint256)": "infinite",
            "getEmployeeSalary(uint256,uint256)": "infinite",
            "getEmployeeWageType(uint256,uint256)": "infinite",
            "getEmployeeWorkerHours(uint256,uint256)": "infinite",
            "pay(uint256)": "infinite",
            "removeAdmin(uint256,uint256)": "infinite",
            "setAddress(uint256,uint256,address)": "infinite",
            "setAdmin(uint256,uint256)": "infinite",
            "setBillingPeriod(uint256,uint256)": "infinite",
            "setCommissionRate(uint256,uint256,uint256)": "infinite",
            "setCommissionValue(uint256,uint256,uint32)": "infinite",
            "setName(uint256,uint256,string)": "infinite",
            "setPayRate(uint256,uint256,uint32)": "infinite",
            "setPosition(uint256,uint256,string)": "infinite",
            "setSalary(uint256,uint256,uint128)": "infinite",
            "setWageType(uint256,uint256,uint8)": "infinite",
            "setWorkerHours(uint256,uint256,uint32)": "infinite"
        },
        "internal": {
            "findSlot()": "infinite",
            "isAdmin(uint256)": "infinite",
            "isOwner(uint256)": "infinite",
            "isValid(uint256)": "infinite",
            "resetPlan(struct SakuraStructs.Employee storage pointer)": "44182"
        }
    }
}