{
    "contractName": "SakuraCompany",
    "abi": [
        {
            "inputs": [],
            "stateMutability": "nonpayable",
            "type": "constructor"
        },
        {
            "anonymous": false,
            "inputs": [
                {
                    "indexed": true,
                    "internalType": "address",
                    "name": "previousOwner",
                    "type": "address"
                },
                {
                    "indexed": true,
                    "internalType": "address",
                    "name": "newOwner",
                    "type": "address"
                }
            ],
            "name": "OwnershipTransferred",
            "type": "event"
        },
        {
            "inputs": [
                {
                    "internalType": "uint256",
                    "name": "",
                    "type": "uint256"
                }
            ],
            "name": "companyRoster",
            "outputs": [
                {
                    "internalType": "string",
                    "name": "name",
                    "type": "string"
                },
                {
                    "internalType": "string",
                    "name": "position",
                    "type": "string"
                },
                {
                    "internalType": "uint256",
                    "name": "employeeID",
                    "type": "uint256"
                },
                {
                    "internalType": "address",
                    "name": "paymentAddress",
                    "type": "address"
                },
                {
                    "components": [
                        {
                            "internalType": "uint8",
                            "name": "wageType",
                            "type": "uint8"
                        },
                        {
                            "internalType": "uint32",
                            "name": "workerHours",
                            "type": "uint32"
                        },
                        {
                            "internalType": "uint32",
                            "name": "payRate",
                            "type": "uint32"
                        },
                        {
                            "internalType": "uint32",
                            "name": "commissionValue",
                            "type": "uint32"
                        },
                        {
                            "internalType": "uint128",
                            "name": "salary",
                            "type": "uint128"
                        },
                        {
                            "internalType": "uint256",
                            "name": "commissionRate",
                            "type": "uint256"
                        },
                        {
                            "internalType": "uint256",
                            "name": "billingPeriod",
                            "type": "uint256"
                        }
                    ],
                    "internalType": "struct SakuraPlan.Plan",
                    "name": "employeePlan",
                    "type": "tuple"
                },
                {
                    "internalType": "bool",
                    "name": "isActive",
                    "type": "bool"
                },
                {
                    "internalType": "uint8",
                    "name": "role",
                    "type": "uint8"
                }
            ],
            "stateMutability": "view",
            "type": "function"
        },
        {
            "inputs": [
                {
                    "internalType": "uint256",
                    "name": "",
                    "type": "uint256"
                }
            ],
            "name": "idToEmployee",
            "outputs": [
                {
                    "internalType": "string",
                    "name": "name",
                    "type": "string"
                },
                {
                    "internalType": "string",
                    "name": "position",
                    "type": "string"
                },
                {
                    "internalType": "uint256",
                    "name": "employeeID",
                    "type": "uint256"
                },
                {
                    "internalType": "address",
                    "name": "paymentAddress",
                    "type": "address"
                },
                {
                    "components": [
                        {
                            "internalType": "uint8",
                            "name": "wageType",
                            "type": "uint8"
                        },
                        {
                            "internalType": "uint32",
                            "name": "workerHours",
                            "type": "uint32"
                        },
                        {
                            "internalType": "uint32",
                            "name": "payRate",
                            "type": "uint32"
                        },
                        {
                            "internalType": "uint32",
                            "name": "commissionValue",
                            "type": "uint32"
                        },
                        {
                            "internalType": "uint128",
                            "name": "salary",
                            "type": "uint128"
                        },
                        {
                            "internalType": "uint256",
                            "name": "commissionRate",
                            "type": "uint256"
                        },
                        {
                            "internalType": "uint256",
                            "name": "billingPeriod",
                            "type": "uint256"
                        }
                    ],
                    "internalType": "struct SakuraPlan.Plan",
                    "name": "employeePlan",
                    "type": "tuple"
                },
                {
                    "internalType": "bool",
                    "name": "isActive",
                    "type": "bool"
                },
                {
                    "internalType": "uint8",
                    "name": "role",
                    "type": "uint8"
                }
            ],
            "stateMutability": "view",
            "type": "function"
        },
        {
            "inputs": [],
            "name": "owner",
            "outputs": [
                {
                    "internalType": "address",
                    "name": "",
                    "type": "address"
                }
            ],
            "stateMutability": "view",
            "type": "function"
        },
        {
            "inputs": [],
            "name": "renounceOwnership",
            "outputs": [],
            "stateMutability": "nonpayable",
            "type": "function"
        },
        {
            "inputs": [
                {
                    "internalType": "address",
                    "name": "newOwner",
                    "type": "address"
                }
            ],
            "name": "transferOwnership",
            "outputs": [],
            "stateMutability": "nonpayable",
            "type": "function"
        }
    ],
    "bytecode": "608060405260cc80546001600160a01b03191673f187f54352ab7b807cb4966183b8d83a367f4d051790553480156200003757600080fd5b50600080546001600160a01b031916339081178255604051909182917f8be0079c531659141344cd1fd0a4f28419497f9722a3daafe3b4186f6b6457e0908290a350621275006002818155600160038181556040805161012081018252600e60e08083019182526d416e64726577204b75727469616b60901b610100840152908252825180840184529384526243454f60e81b6020808601919091528083019490945281830185905260cc546001600160a01b03166060808401919091528351918201845285825260008286018190529382018490528101839052620186a060808083019190915260a08281019490945260c08281019890985282015290810192909252928101919091528051805191926004926200015a928492019062000691565b50602082810151805162000175926001850192019062000691565b5060408281015160028301556060808401516003840180546001600160a01b039092166001600160a01b03199092169190911790556080808501518051600480870180546020808601519886015197860151968601516001600160801b0316600160681b02600160681b600160e81b031963ffffffff98891669010000000000000000000263ffffffff60481b199a8a1665010000000000029a909a16600160281b600160681b031999909b1661010090810264ffffffffff1990951660ff9889161794909417989098169990991797909717959095169690961790955560a080830151600588015560c09283015160068801558701516007909601805492909701511690910261ff00199415159490941661ffff19909116179290921790925560016000819052905280547fcc69885fda6bcc1a4ace058b4a62bf5e179ea78fd58a1ccd71c22cc9b688792f9081908390620002d290620007bb565b620002df92919062000720565b506001820181600101908054620002f690620007bb565b6200030392919062000720565b506002828101549082015560038083015481830180546001600160a01b0319166001600160a01b0390921691909117905560048084018054918401805460ff1980821660ff9586169081178455845463ffffffff610100918290048116820264ffffffffff19909516909217939093178085558554650100000000009081900483160263ffffffff60281b19821681178655865469010000000000000000009081900490931690920263ffffffff60481b19909216600160281b600160681b0319909116171780845593546001600160801b03600160681b918290041602600160681b600160e81b031990941693909317909155600580870154908601556006808701549086015560079586018054969095018054968416151592871683178155945481900490921690910261ff001990911661ffff199094169390931792909217905580549060006200045783620007f8565b90915550600190505b60198110156200068a576040805161010081018252600060e080830182815283528351602081810186528382528085019190915283850183905260cc546001600160a01b031660608086019190915285519283018652838352908201839052938101829052928301819052608083810182905260a084810183905260025460c0808701919091529184019490945292820181905291810191909152600482601981106200051d57634e487b7160e01b600052603260045260246000fd5b6008020160008201518160000190805190602001906200053f92919062000691565b5060208281015180516200055a926001850192019062000691565b5060408281015160028301556060808401516003840180546001600160a01b039092166001600160a01b0319909216919091179055608080850151805160048601805460208401519684015195840151948401516001600160801b0316600160681b02600160681b600160e81b031963ffffffff96871669010000000000000000000263ffffffff60481b19988816650100000000000298909816600160281b600160681b03199790991661010090810264ffffffffff1990941660ff9687161793909317969096169790971795909517939093169490941790915560a080820151600586015560c09182015160068601558501516007909401805491909501519092160261ff00199215159290921661ffff1990911617179055806200068181620007f8565b91505062000460565b5062000820565b8280546200069f90620007bb565b90600052602060002090601f016020900481019282620006c357600085556200070e565b82601f10620006de57805160ff19168380011785556200070e565b828001600101855582156200070e579182015b828111156200070e578251825591602001919060010190620006f1565b506200071c929150620007a4565b5090565b8280546200072e90620007bb565b90600052602060002090601f0160209004810192826200075257600085556200070e565b82601f106200076557805485556200070e565b828001600101855582156200070e57600052602060002091601f016020900482015b828111156200070e57825482559160010191906001019062000787565b5b808211156200071c5760008155600101620007a5565b600181811c90821680620007d057607f821691505b60208210811415620007f257634e487b7160e01b600052602260045260246000fd5b50919050565b60006000198214156200081957634e487b7160e01b81526011600452602481fd5b5060010190565b61064b80620008306000396000f3fe608060405234801561001057600080fd5b50600436106100575760003560e01c8063715018a61461005c5780638da5cb5b14610066578063e15c7c0e14610086578063f2fde38b146100ac578063f599d7d9146100bf575b600080fd5b6100646100d2565b005b6000546040516001600160a01b0390911681526020015b60405180910390f35b6100996100943660046104b3565b61017b565b60405161007d9796959493929190610516565b6100646100ba366004610485565b610350565b6100996100cd3660046104b3565b61046a565b6000546001600160a01b031633146101315760405162461bcd60e51b815260206004820181905260248201527f4f776e61626c653a2063616c6c6572206973206e6f7420746865206f776e657260448201526064015b60405180910390fd5b600080546040516001600160a01b03909116907f8be0079c531659141344cd1fd0a4f28419497f9722a3daafe3b4186f6b6457e0908390a3600080546001600160a01b0319169055565b6004816019811061018b57600080fd5b600802018054909150819061019f906105da565b80601f01602080910402602001604051908101604052809291908181526020018280546101cb906105da565b80156102185780601f106101ed57610100808354040283529160200191610218565b820191906000526020600020905b8154815290600101906020018083116101fb57829003601f168201915b50505050509080600101805461022d906105da565b80601f0160208091040260200160405190810160405280929190818152602001828054610259906105da565b80156102a65780601f1061027b576101008083540402835291602001916102a6565b820191906000526020600020905b81548152906001019060200180831161028957829003601f168201915b505050600284015460038501546040805160e081018252600488015460ff808216835263ffffffff61010080840482166020860152650100000000008404821695850195909552690100000000000000000083041660608401526001600160801b03600160681b909204919091166080830152600589015460a0830152600689015460c0830152600790980154969793966001600160a01b03909316955093508183169291041687565b6000546001600160a01b031633146103aa5760405162461bcd60e51b815260206004820181905260248201527f4f776e61626c653a2063616c6c6572206973206e6f7420746865206f776e65726044820152606401610128565b6001600160a01b03811661040f5760405162461bcd60e51b815260206004820152602660248201527f4f776e61626c653a206e6577206f776e657220697320746865207a65726f206160448201526564647265737360d01b6064820152608401610128565b600080546040516001600160a01b03808516939216917f8be0079c531659141344cd1fd0a4f28419497f9722a3daafe3b4186f6b6457e091a3600080546001600160a01b0319166001600160a01b0392909216919091179055565b60016020526000908152604090208054819061019f906105da565b600060208284031215610496578081fd5b81356001600160a01b03811681146104ac578182fd5b9392505050565b6000602082840312156104c4578081fd5b5035919050565b60008151808452815b818110156104f0576020818501810151868301820152016104d4565b818111156105015782602083870101525b50601f01601f19169290920160200192915050565b60006101a080835261052a8184018b6104cb565b9050828103602084015261053e818a6104cb565b91505086604083015260018060a01b038616606083015260ff8551166080830152602085015163ffffffff80821660a08501528060408801511660c08501528060608801511660e085015250506001600160801b0360808601511661010083015260a085015161012083015260c08501516101408301526105c461016083018515159052565b60ff831661018083015298975050505050505050565b600181811c908216806105ee57607f821691505b6020821081141561060f57634e487b7160e01b600052602260045260246000fd5b5091905056fea264697066735822122080b1abb152aff777d68fb9a00be9b88a54fac5d291200c66a29d6190c74ccdfe64736f6c63430008040033",
    "sourcePath": "c:/Sakura Payment/SakuraPayment/SakuraCompany.sol",
    "compiler": {
        "name": "solc",
        "version": "0.8.4+commit.c7e474f2"
    },
    "functionHashes": {
        "companyRoster(uint256)": "e15c7c0e",
        "idToEmployee(uint256)": "f599d7d9",
        "owner()": "8da5cb5b",
        "renounceOwnership()": "715018a6",
        "transferOwnership(address)": "f2fde38b"
    },
    "gasEstimates": {
        "creation": {
            "codeDepositCost": "322200",
            "executionCost": "infinite",
            "totalCost": "infinite"
        },
        "external": {
            "companyRoster(uint256)": "infinite",
            "idToEmployee(uint256)": "infinite",
            "owner()": "990",
            "renounceOwnership()": "24143",
            "transferOwnership(address)": "24409"
        },
        "internal": {
            "addEmployee(uint256,string memory,string memory,uint8,uint8,uint8,uint32,uint128,uint256)": "infinite",
            "changeEmployeeBillingPeriod(uint256)": "infinite",
            "deleteEmployee(uint256,uint256)": "infinite",
            "findSlot()": "infinite",
            "getActiveEmployees()": "infinite",
            "getProfile(uint256)": "infinite",
            "isAdmin(uint256)": "infinite",
            "isOwner(uint256)": "infinite",
            "isValid(uint256)": "infinite",
            "setAddress(uint256,uint256,address)": "infinite",
            "setAdmin(uint256,uint256)": "infinite",
            "setBillingPeriod(uint256,uint256)": "infinite",
            "setCommissionRate(uint256,uint256,uint256)": "infinite",
            "setCommissionValue(uint256,uint256,uint32)": "infinite",
            "setName(uint256,uint256,string memory)": "infinite",
            "setNewOwner(uint256,uint256)": "infinite",
            "setPayRate(uint256,uint256,uint32)": "infinite",
            "setPosition(uint256,uint256,string memory)": "infinite",
            "setSalary(uint256,uint256,uint128)": "infinite",
            "setWageType(uint256,uint256,uint8)": "infinite",
            "setWorkerHours(uint256,uint256,uint32)": "infinite"
        }
    }
}